:100000000C943E000C9448000C9448000C9448005A
:100010000C9448000C9448000C9448000C94480040
:100020000C9448000C9448000C9448000C94480030
:100030000C9448000C9448000C9448000C94480020
:100040000C9448000C9448000C9448000C94480010
:100050000C9448000C9448000C9448000C94480000
:100060000C9448000C9448000C9448000C944800F0
:100070000C9448000C9448000C94480011241FBEB6
:10008000CFEFD8E0DEBFCDBF0E946C000C94A7007C
:100090000C9400001AB84A9907C083EC99E00197C4
:1000A000F1F700C0000089B14A9B0BC083EC99E0D6
:1000B0000197F1F700C0000089B182FB882780F921
:1000C000089580E00895009731F021E22A95F1F734
:1000D00000000197F8CF08958FEF84B9C0E9D1E00F
:1000E00012E001E0209759F005B9CE010E946300AB
:1000F00015B880E991E00E9463002197F3CF15B80D
:1001000080E991E00E94630015B9CE010E9463006E
:100110002196C03981E0D80791F705B9CE010E9438
:10012000630015B880E991E00E9463002197A9F768
:1001300015B880E991E00E94630015B9CE010E94D4
:1001400063002196C03981E0D80791F7CBCFF894AE
:02015000FFCFDF
:00000001FF
