:100000000C943E000C9477000C9450000C9450001B
:100010000C9450000C9450000C9450000C94500020
:100020000C9450000C9450000C9450000C94500010
:100030000C9450000C9450000C9450000C94500000
:100040000C9450000C9450000C9450000C945000F0
:100050000C9450000C9450000C9450000C945000E0
:100060000C9450000C9450000C9450000C945000D0
:100070000C9450000C9450000C94500011241FBE9E
:10008000CFEFD8E0DEBFCDBF21E0A0E0B1E001C0FE
:100090001D92A230B207E1F70E948E000C94B600C8
:1000A0000C9400001AB84A9907C083EC99E00197B4
:1000B000F1F700C0000089B14A9B0BC083EC99E0C6
:1000C0000197F1F700C0000089B182FB882780F911
:1000D000089580E008951AB88FEF84B9F894E89AEB
:1000E000E9E6F0E0808182608083789408951F9231
:1000F0000F920FB60F9211248F939F938BE49DE183
:100100000197F1F700C00000E09A82E085B99F9165
:100110008F910F900FBE0F901F9018950E946B004B
:100120002FE736E988E9215030408040E1F700C0F0
:10013000000081E085B99FE32DE033E0915020403D
:100140003040E1F700C0000015B89FE724E83EE129
:10015000915020403040E1F700C00000F89495B184
:10016000923009F085B990E080E00895F894FFCFCF
:00000001FF
