:100000000C943E000C945B000C945B000C945B0021
:100010000C945B000C945B000C945B000C945B00F4
:100020000C945B000C945B000C945B000C945B00E4
:100030000C945B000C945B000C945B000C945B00D4
:100040000C945B000C945B000C945B000C945B00C4
:100050000C945B000C945B000C945B000C945B00B4
:100060000C945B000C945B000C945B000C945B00A4
:100070000C945B000C945B000C945B0011241FBE7D
:10008000CFEFD8E0DEBFCDBF11E0A0E0B1E0E2E10C
:10009000F5E002C005900D92AE32B107D9F721E02C
:1000A000AEE2B1E001C01D92A033B207E1F70E94B9
:1000B0001F020C9487020C9400001AB84A9907C0DA
:1000C00083EC99E00197F1F700C0000089B14A9BE9
:1000D0000BC083EC99E00197F1F700C0000089B1F3
:1000E00082FB882780F9089580E00895089580EACA
:1000F000809300011092B90080E28093B8000895C7
:1001000020E8FC0120830C947700982F93708913CA
:1001100005C0880F806A8093000108958FEF0895CD
:1001200094EA24E89093BC008091BC0087FFFCCF48
:10013000809100018093BB002093BC008091BC00A3
:1001400087FFFCCF8091B900883161F784EA809302
:10015000BC008091BC0087FFFCCF809100018093A0
:10016000BB0084E88093BC008091BC0087FFFCCF7B
:100170007093BB0084E88093BC008091BC0087FF33
:10018000FCCF6093BB0084E88093BC008091BC00EE
:1001900087FFFCCF8091BC0087FFFCCF84EA80936F
:1001A000BC008091BC0087FFFCCF809100018F5F75
:1001B0008093BB0084E88093BC008091BC0087FFE3
:1001C000FCCF84E88093BC008091BC0087FFFCCF0B
:1001D0008091BB00FA01808384E98093BC0080E0B9
:1001E000089594EA34E89093BC008091BC0087FFA6
:1001F000FCCF809100018093BB003093BC008091C4
:10020000BC0087FFFCCF8091B900883161F784EA98
:100210008093BC008091BC0087FFFCCF80910001DF
:100220008093BB0084E88093BC008091BC0087FF72
:10023000FCCF7093BB0084E88093BC008091BC002D
:1002400087FFFCCF6093BB0084E88093BC00809163
:10025000BC0087FFFCCF84EA8093BC008091BC0087
:1002600087FFFCCF809100018F5F8093BB0084E803
:100270008093BC008091BC0087FFFCCFFA0184EC26
:10028000222371F0213009F484E88093BC0090911E
:10029000BC0097FFFCCF9091BB0091932150F0CF11
:1002A00084E98093BC0080E0089594EA24E8909368
:1002B000BC008091BC0087FFFCCF8091000180933F
:1002C000BB002093BC008091BC0087FFFCCF8091D5
:1002D000B900883161F784EA8093BC008091BC004A
:1002E00087FFFCCF809100018093BB0084E880935E
:1002F000BC008091BC0087FFFCCF7093BB0084E8FA
:100300008093BC008091BC0087FFFCCF6093BB0052
:1003100084E88093BC008091BC0087FFFCCF4093B1
:10032000BB0084E88093BC008091BC0087FFFCCFB9
:1003300084E98093BC0080E00895260F372F311D9B
:10034000FC0180818150990B862B972B2817390748
:1003500018F09C012F5F3F4F822F861B24EA34E860
:100360002093BC009091BC0097FFFCCF90910001BE
:100370009093BB003093BC009091BC0097FFFCCFE2
:100380009091B900983161F794EA9093BC009091F4
:10039000BC0097FFFCCF909100019093BB0094E8C4
:1003A0009093BC009091BC0097FFFCCF7093BB0072
:1003B00094E89093BC009091BC0097FFFCCF6093B1
:1003C000BB0094E89093BC009091BC0097FFFCCFD9
:1003D000FA01982F24E8992359F031913093BB000A
:1003E0002093BC003091BC0037FFFCCF9150F3CF7D
:1003F00094E99093BC000895CF92DF92EF92FF9220
:100400000F931F93CF936C017B018A01C22F2C2F76
:10041000A801B701C6010E949D01282F30E0E20E1D
:10042000F31EC81B020F131FC111F1CF80E0CF9143
:100430001F910F91FF90EF90DF90CF9008950F9351
:100440001F93CF93DF93CDB7DEB7CC55D1090FB64D
:10045000F894DEBF0FBECDBF8FEF84B98DE2E1E02F
:10046000F1E0DE019F9601900D928A95E1F78E01F1
:100470000F5F1F4F8EE2F80111928A95E9F7CE01C6
:10048000845A9F4F0E9480002DE2AE01415D5F4F74
:1004900070E060E0CE01845A9F4F0E94FC0183EC23
:1004A00099E00197F1F700C000002DE2A80170E08B
:1004B00060E0CE01845A9F4F0E94F100FE01BF967A
:1004C000DE0112969F01245D3F4F91E042E0E2176A
:1004D000F30741F051918D91581317C045B985B17B
:1004E0008130A9F7CE01845A9F4F0E94760090E098
:1004F00080E0C45ADF4F0FB6F894DEBF0FBECDBF09
:10050000DF91CF911F910F91089595B9E8CFF8949D
:02051000FFCF1B
:10051200A02A502A4F2A4C2A592A542A452A432AC9
:10052200482A4E2A492A512A552A452A202A4D2A42
:0E0532004F2A4E2A542A522A452A412A4C2A80
:00000001FF
