:100000000C943E000C9452000C9450000C94500040
:100010000C9450000C9450000C9450000C94500020
:100020000C9450000C9450000C9450000C94500010
:100030000C9450000C9450000C9450000C94500000
:100040000C9450000C9450000C9450000C945000F0
:100050000C9450000C9450000C9450000C945000E0
:100060000C9450000C9450000C9450000C945000D0
:100070000C9450000C9450000C94500011241FBE9E
:10008000CFEFD8E0DEBFCDBF21E0A0E0B1E001C0FE
:100090001D92A330B207E1F70E9478000C94F4009F
:1000A0000C9400001F920F920FB60F9211248F93A1
:1000B0009F938FE59AEE0197F1F700C000008091C1
:1000C00002018F5F80930201E09A9F918F910F90C0
:1000D0000FBE0F901F901895F8941AB88FEF84B93F
:1000E000E89AE9E6F0E08081816080837894089561
:1000F0000E946C0051E042E080910201823099F14F
:10010000F8F4882371F18130B9F745B98091000185
:10011000909101018837910584F52FEF60E782E027
:10012000215060408040E1F700C000008091000154
:100130009091010101969093010180930001DCCF21
:10014000833009F18430C1F645B98FEF99E628E193
:10015000815090402040E1F700C000001092020161
:10016000CBCF15B8C9CF85B99FEF24E36CE0915090
:1001700020406040E1F700C00000809102018F5FE5
:1001800080930201B9CF30E020E08091000190918E
:10019000010197FD03969595879595958795281765
:1001A00039075CF755B98FE79AE166E081509040D6
:1001B0006040E1F700C0000015B88FE79AE166E003
:1001C000815090406040E1F700C0000055B98FE7D2
:1001D0009AE166E0815090406040E1F700C0000085
:0C01E00015B82F5F3F4FD1CFF894FFCF30
:00000001FF
