:100000000C943E000C9448000C9448000C9448005A
:100010000C9448000C9448000C9448000C94480040
:100020000C9448000C9448000C9448000C94480030
:100030000C9448000C9448000C9448000C94480020
:100040000C9448000C9448000C9448000C94480010
:100050000C9448000C9448000C9448000C94480000
:100060000C9448000C9448000C9448000C944800F0
:100070000C9448000C9448000C94480011241FBEB6
:10008000CFEFD8E0DEBFCDBF0E944A000C946000E5
:100090000C9400008FEF81B984B987B98AB991E0D7
:1000A00082E095B9E9E6F8E13197F1F700C0000088
:1000B00085B9EBE7F2E93197F1F700C00000F1CF25
:0400C000F894FFCFE2
:00000001FF
