:100000000C943E000C9448000C9448000C9448005A
:100010000C9448000C9448000C9448000C94480040
:100020000C9448000C9448000C9448000C94480030
:100030000C9448000C9448000C9448000C94480020
:100040000C9448000C9448000C9448000C94480010
:100050000C9448000C9448000C9448000C94480000
:100060000C9448000C9448000C9448000C944800F0
:100070000C9448000C9448000C94480011241FBEB6
:10008000CFEFD8E0DEBFCDBF0E944A000C945A00EB
:100090000C9400001AB88FEF84B981E04A9BFECF20
:1000A000E3ECF9E03197F1F700C000004A9BF6CF8E
:0800B00085B9F4CFF894FFCFED
:00000001FF
