:100000000C943E000C9448000C9448000C9448005A
:100010000C9448000C9448000C9448000C94480040
:100020000C9448000C9448000C9448000C94480030
:100030000C9448000C9448000C9448000C94480020
:100040000C9448000C9448000C9448000C94480010
:100050000C9448000C9448000C9448000C94480000
:100060000C9448000C9448000C9448000C944800F0
:100070000C9448000C9448000C94480011241FBEB6
:10008000CFEFD8E0DEBFCDBF0E946D000C948200A0
:100090000C9400001AB84A9907C083EC99E00197C4
:1000A000F1F700C0000089B14A9B0BC083EC99E0D6
:1000B0000197F1F700C0000089B182FB882780F921
:1000C000089580E00895019738F0E9EFF0E0319766
:1000D000F1F700C00000F7CF08958FEF84B90E94B8
:1000E0004A008823E1F3C2E3D0E011E015B9CE0164
:1000F0000E94630015B8CE010E9463002197B1F7FA
:0801000015B8F4CFF894FFCF0D
:00000001FF
