:100000000C943E000C9448000C9448000C9448005A
:100010000C9448000C9448000C9448000C94480040
:100020000C9448000C9448000C9448000C94480030
:100030000C9448000C9448000C9448000C94480020
:100040000C9448000C9448000C9448000C94480010
:100050000C9448000C9448000C9448000C94480000
:100060000C9448000C9448000C9448000C944800F0
:100070000C9448000C9448000C94480011241FBEB6
:10008000CFEFD8E0DEBFCDBF0E9463000C94A2008A
:100090000C9400001AB84A9907C083EC99E00197C4
:1000A000F1F700C0000089B14A9B0BC083EC99E0D6
:1000B0000197F1F700C0000089B182FB882780F921
:1000C000089580E008958FEF84B990E080E0C2E069
:1000D000D1E081309105F9F0029741F1D5B90E9444
:1000E0004A00882361F1D5B989E698E10197F1F7D3
:1000F00000C00000C5B98BE792E90197F1F700C095
:1001000000000E944A008111EECF81E090E0E1CF33
:1001100082E090E0DECFC5B90E944A008823A9F3AF
:10012000D5B90E944A008111FBCF15B80E944A0040
:10013000882371F3C5B90E944A008111FCCF90E079
:0801400080E0C7CFF894FFCF67
:00000001FF
