:100000000C943E000C9477000C9450000C9450001B
:100010000C9450000C9450000C9450000C94500020
:100020000C9450000C9450000C9450000C94500010
:100030000C9450000C948C000C9450000C945000C4
:100040000C9450000C9450000C9450000C945000F0
:100050000C9450000C9450000C9450000C945000E0
:100060000C9450000C9450000C9450000C945000D0
:100070000C9450000C9450000C94500011241FBE9E
:10008000CFEFD8E0DEBFCDBF21E0A0E0B1E001C0FE
:100090001D92A230B207E1F70E94BA000C94C8008A
:1000A0000C9400001AB84A9907C083EC99E00197B4
:1000B000F1F700C0000089B14A9B0BC083EC99E0C6
:1000C0000197F1F700C0000089B182FB882780F911
:1000D000089580E008951AB88FEF84B9F894E89AEB
:1000E000E9E6F0E0808182608083789408951F9231
:1000F0000F920FB60F9211248F939F938BE49DE183
:100100000197F1F700C00000E09A9F918F910F9046
:100110000FBE0F901F9018951F920F920FB60F925F
:1001200011248F9381E0809301018F910F900FBE76
:100130000F901F9018951092010110928500109257
:1001400084009093890080938800E0E8F0E080814B
:1001500080688083808180648083E1E8F0E0808132
:100160008160808310928200EFE6F0E080818260FF
:10017000808308950E946B0089E190E00E949B00BB
:1001800080910101813009F485B990E080E0089503
:04019000F894FFCF11
:00000001FF
