:100000000C943E000C9448000C9448000C9448005A
:100010000C9448000C9448000C9448000C94480040
:100020000C9448000C9448000C9448000C94480030
:100030000C9448000C9448000C9448000C94480020
:100040000C9448000C9448000C9448000C94480010
:100050000C9448000C9448000C9448000C94480000
:100060000C9448000C9448000C9448000C944800F0
:100070000C9448000C9448000C94480011241FBEB6
:10008000CFEFD8E0DEBFCDBF0E9463000C94B60076
:100090000C9400001AB84A9907C083EC99E00197C4
:1000A000F1F700C0000089B14A9B0BC083EC99E0D6
:1000B0000197F1F700C0000089B182FB882780F921
:1000C000089580E008958FEF84B990E080E0C1E06A
:1000D00082309105A9F184F4019739F10E944A0018
:1000E000882339F00E944A008111FCCF81E090E022
:1000F000EFCF90E080E0ECCF8330910561F1049781
:1001000069F70E944A00882371F10E944A00811118
:10011000FCCFC5B92FE38DE093E0215080409040A3
:10012000E1F700C0000015B8D9CF0E944A0088232B
:10013000E9F20E944A008111FCCF82E090E0C8CF32
:100140000E944A008823C9F30E944A008111FCCF13
:1001500083E090E0BDCF0E944A008823C9F30E944B
:100160004A008111FCCF84E090E0B2CFF894FFCF39
:00000001FF
