:100000000C943E000C9448000C9448000C9448005A
:100010000C9448000C9448000C9448000C94480040
:100020000C9448000C9448000C9448000C94480030
:100030000C9448000C9448000C9448000C94480020
:100040000C9448000C9448000C9448000C94480010
:100050000C9448000C9448000C9448000C94480000
:100060000C9448000C9448000C9448000C944800F0
:100070000C9448000C9448000C94480011241FBEB6
:10008000CFEFD8E0DEBFCDBF0E946C000C94090119
:100090000C9400001AB84A9907C083EC99E00197C4
:1000A000F1F700C0000089B14A9B0BC083EC99E0D6
:1000B0000197F1F700C0000089B182FB882780F921
:1000C000089580E00895009731F021E22A95F1F734
:1000D00000000197F8CF08958FEF84B92FE784E8E7
:1000E0009EE1215080409040E1F700C0000088E789
:1000F00090E022E025B9E2EFF6E13197F1F700C098
:10010000000015B8E8E0FDE33197F1F700C000000A
:10011000019781F788E790E022E025B9EFE0F7E268
:100120003197F1F700C0000015B8EFE0F7E2319722
:10013000F1F700C00000019781F788E790E022E026
:1001400025B9E8E0FDE33197F1F700C0000015B8EC
:10015000E2EFF6E13197F1F700C00000019781F777
:1001600088E790E022E025B9E0E6F1E53197F1F784
:1001700000000197C1F715B8FFE724E88EE1F150C0
:1001800020408040E1F700C0000080E991E022E0DB
:1001900025B9EAE1F6E03197F1F7000015B8EFE490
:1001A000F2E13197F1F70000019791F780E991E0D2
:1001B00022E025B9E4E3FCE03197F1F700C000004C
:1001C00015B8E4E3FCE03197F1F700C000000197B7
:1001D00081F780E991E022E025B9EFE4F2E131977F
:1001E000F1F7000015B8EAE1F6E03197F1F7000009
:1001F000019791F780E991E022E025B9E9E6F8E17D
:100200003197F1F700C000000197B9F790E080E066
:060210000895F894FFCFF1
:00000001FF
