:100000000C943E000C9448000C9448000C9448005A
:100010000C9448000C9448000C9448000C94480040
:100020000C9448000C9448000C9448000C94480030
:100030000C9448000C9448000C9448000C94480020
:100040000C9448000C9448000C9448000C94480010
:100050000C9448000C9448000C9448000C94480000
:100060000C9448000C9448000C9448000C944800F0
:100070000C9448000C9448000C94480011241FBEB6
:10008000CFEFD8E0DEBFCDBF0E946C000C947100B2
:100090000C9400001AB84A9907C083EC99E00197C4
:1000A000F1F700C0000089B14A9B0BC083EC99E0D6
:1000B0000197F1F700C0000089B182FB882780F921
:1000C000089580E00895009731F021E22A95F1F734
:1000D00000000197F8CF08958FEF84B981E085B9CA
:0600E000FECFF894FFCFF3
:00000001FF
