:100000000C943E000C9448000C9448000C9448005A
:100010000C9448000C9448000C9448000C94480040
:100020000C9448000C9448000C9448000C94480030
:100030000C9448000C9448000C9448000C94480020
:100040000C9448000C9448000C9448000C94480010
:100050000C9448000C9448000C9448000C94480000
:100060000C9448000C9448000C9448000C944800F0
:100070000C9448000C9448000C94480011241FBEB6
:10008000CFEFD8E0DEBFCDBF0E9463000C946F00BD
:100090000C9400001AB84A9907C083EC99E00197C4
:1000A000F1F700C0000089B14A9B0BC083EC99E0D6
:1000B0000197F1F700C0000089B182FB882780F921
:1000C000089580E008958FEF84B90E944A00882344
:1000D00019F00E944A00F9CF90E080E00895F8946A
:0200E000FFCF50
:00000001FF
