:100000000C943E000C9452000C9450000C94500040
:100010000C9450000C9450000C9450000C94500020
:100020000C9450000C9450000C9450000C94500010
:100030000C9450000C9450000C9450000C94500000
:100040000C9450000C9450000C9450000C945000F0
:100050000C9450000C9450000C9450000C945000E0
:100060000C9450000C9450000C9450000C945000D0
:100070000C9450000C9450000C94500011241FBE9E
:10008000CFEFD8E0DEBFCDBF21E0A0E0B1E001C0FE
:100090001D92A130B207E1F70E947F000C94360157
:1000A0000C9400001F920F920FB60F9211248F93A1
:1000B0009F938FE59AEE0197F1F700C000008091C1
:1000C0000001833051F410920001E09A9F918F91CA
:1000D0000F900FBE0F901F901895809100018F5FB9
:1000E00080930001F2CFF8941AB88FEF81B9E89AA3
:1000F000E9E6F0E0808181608083789408950E9431
:10010000730030E020E0E2E0F3E0CAE0D0E011E08C
:1001100080910001813009F461C008F45DC0823033
:1001200081F18330A9F75FEF83ED90E35150804078
:100130009040E1F700C00000C901BE010E940E011D
:1001400090E080E06817790709F45AC045E050E074
:1001500012B9AFE3BDE003E0A150B0400040E1F7C9
:1001600000C0000012B8AFEBB4ED01E0A150B04008
:100170000040E1F700C000004150510949F70196E5
:10018000E1CF82B90FE749EA53E0015040405040C7
:10019000E1F700C0000012B89FEFA0E7B2E0915075
:1001A000A040B040E1F700C0000082B90FE749EA83
:1001B00053E0015040405040E1F700C0000012B849
:1001C0008FEF90E7A2E081509040A040E1F700C09F
:1001D0000000F09300019CCF12B89ACF2837310568
:1001E00064F4265F3F4FBFEF09E648E1B15000409D
:1001F0004040E1F700C000008BCFE093000188CFC2
:10020000E2B94FEF59E688E1415050408040E1F7B4
:1002100000C0000012B8109200017ACF97FB072EA1
:1002200016F4009407D077FD09D00E94220107FC44
:1002300005D03EF4909581959F4F089570956195F6
:100240007F4F0895AA1BBB1B51E107C0AA1FBB1F0C
:10025000A617B70710F0A61BB70B881F991F5A9552
:10026000A9F780959095BC01CD010895F894FFCF32
:00000001FF
