:100000000C943E000C9477000C9450000C9450001B
:100010000C9450000C9450000C9450000C94500020
:100020000C9450000C9450000C9450000C94500010
:100030000C9450000C9450000C9450000C94500000
:100040000C9450000C9450000C9450000C945000F0
:100050000C9450000C9450000C9450000C945000E0
:100060000C9450000C9450000C9450000C945000D0
:100070000C9450000C9450000C94500011241FBE9E
:10008000CFEFD8E0DEBFCDBF21E0A0E0B1E001C0FE
:100090001D92A230B207E1F70E9495000C94AF00C8
:1000A0000C9400001AB84A9907C083EC99E00197B4
:1000B000F1F700C0000089B14A9B0BC083EC99E0C6
:1000C0000197F1F700C0000089B182FB882780F911
:1000D000089580E008951AB88FEF84B9F894E89AEB
:1000E000E9E6F0E0808181608083789408951F9232
:1000F0000F920FB60F9211248F939F938BE49DE183
:100100000197F1F700C0000080910001909101017A
:1001100001969093010180930001E09A9F918F9145
:100120000F900FBE0F901F9018950E946B0081E0FA
:10013000209100013091010125303105C9F710925D
:1001400001011092000185B92FE33DE093E02150B9
:1001500030409040E1F700C0000015B8E9CFF894B6
:02016000FFCFCF
:00000001FF
